:0100080022D5
:0B3148005394FC5393FCD281D28022F0
:10311A00C280D281D280120008C281120008C28005
:01312A002282
:0F312B00C281D280120008D281120008C2802215
:06303E0012311A1230F3FA
:10304400D28030810E900131E0C394FF5005E0043A
:05305400F080EFC280D6
:013059002254
:1030F3007E08EF25E0FF9281D280120008C280DEB5
:03310300F1D28185
:0131060022A6
:1030AD007E08D280120008EF25E0FDA281E4334DA9
:0730BD00FFC280DEEDD281AD
:0130C40022E9
:1030DD0012303EAF051230F3123044AF031230F30D
:0630ED0012304402312BF9
:022FE200AC073A
:102FE40012303EAF051230F312304412311AEC04A1
:0D2FF400FF1230F31230441230AD12312BB9
:0130010022AC
:102F3800E4FB7D6B7FD01230DD7B077D197FD012DB
:102F480030DD7B067D1A7FD01230DDE4FB7D1B7FF0
:0D2F5800D01230DD7B017D1C7FD00230DD0A
:102EF900E4F5F01206F9900002E4F5F012071890D3
:102F09000004E4F5F0120718900006E4F5F0120742
:102F190018900008E4F5F012071890000A120894B6
:0F2F29000000000090000E12089400000000222B
:082F650090012EEFF0A3EDF046
:102F6D00122FE2900130EFF090012EE0FFA3E0046C
:102F7D00FD122FE2AD07900130E0FE7C00E42DFF45
:032F8D00EC3EFE19
:012F9000221E
:102F9100E4F5F01206F9900002E4F5F0120718903A
:102FA1000004E4F5F0120718900006E4F5F01207AA
:0A2FB10018900008E4F5F00207187C
:0B1BDE00900115EBF0A3EAF0A3E9F082
:101BE90090011A1208490000000090011E120849CC
:101BF9000000000090012212084900000000900135
:101C0900261208490000000090012A120849000024
:101C190000009001187407F0A374D0F090011AE045
:101C2900F8A3E0F9A3E0FAA3E0FBC000C001C002F9
:101C3900C0037D3B7FD0122F65EE3395E0FDFCD0CC
:101C490003D002D001D000EB2FFFEA3EFEE93DFDB3
:101C5900E83CFC90011A12083D90011EE0F8A3E04F
:101C6900F9A3E0FAA3E0FBC000C001C002C0037DF4
:101C79003D7FD0122F65EE3395E0FDFCD003D002F5
:101C8900D001D000EB2FFFEA3EFEE93DFDE83CFC28
:101C990090011E12083D900122E0F8A3E0F9A3E0AB
:101CA900FAA3E0FBC000C001C002C0037D3F7FD0A2
:101CB900122F65EE3395E0FDFCD003D002D001D0A0
:101CC90000EB2FFFEA3EFEE93DFDE83CFC900122D6
:101CD90012083D900126E0F8A3E0F9A3E0FAA3E099
:101CE900FBC000C001C002C0037D437FD0122F6535
:101CF900EE3395E0FDFCD003D002D001D000EB2FEC
:101D0900FFEA3EFEE93DFDE83CFC90012612083D54
:101D190090012AE0F8A3E0F9A3E0FAA3E0FBC000F0
:101D2900C001C002C0037D457FD0122F65EE3395F7
:101D3900E0FDFCD003D002D001D000EB2FFFEA3E3A
:101D4900FEE93DFDE83CFC90012A12083D9001198D
:101D5900E024FFF0900118E034FFF0D3A3E09400F1
:101D6900900118E0648094804003021C25E47BD034
:101D79007A07F9F890011AE0FCA3E0FDA3E0FEA3BD
:101D8900E0FF122E31900115E0FBA3E0FAA3E0F980
:101D9900EE8FF01206F9E47BD07A07F9F890011E6C
:101DA900E0FCA3E0FDA3E0FEA3E0FF122E319001C9
:101DB90015E0FBA3E0FAA3E0F9900002EE8FF01220
:101DC9000718E47BD07A07F9F8900122E0FCA3E038
:101DD900FDA3E0FEA3E0FF122E31E42FFFEE34C095
:101DE900FE900115E0FBA3E0FAA3E0F9900004EEF0
:101DF9008FF0120718E47BD07A07F9F8900126E0F2
:101E0900FCA3E0FDA3E0FEA3E0FF122E3190011533
:101E1900E0FBA3E0FAA3E0F9900006EE8FF01207C9
:101E290018E47BD07A07F9F890012AE0FCA3E0FDD9
:101E3900A3E0FEA3E0FF122E31900115E0FBA3E021
:0D1E4900FAA3E0F9900008EE8FF0020718F0
:1026B9009000EFEBF0A3EAF0A3E9F07D3B7FD012A5
:1026C9002F659000F2E0FBA3E0FAA3E0F912069669
:1026D900FDC3EF9DFFEE95F0F99000EFE0FBA3E05D
:1026E900FAA3E0C98FF01206F97D3D7FD0122F655C
:1026F9009000F2E0FBA3E0FAA3E0F99000021206D1
:10270900C1FDC3EF9DFFEE95F0FE9000EFE0FBA346
:10271900E0FAA3E0F9900002EE8FF01207187D3F6E
:102729007FD0122F659000F2E0FBA3E0FAA3E0F955
:102739009000041206C1FDC3EF9DFFEE95F0FE90D7
:1027490000EFE0FBA3E0FAA3E0F9900004EE8FF0BC
:102759001207187D437FD0122F659000F2E0FBA38A
:10276900E0FAA3E0F99000061206C1FDC3EF9DFF50
:10277900EE95F0FE9000EFE0FBA3E0FAA3E0F990FC
:102789000006EE8FF01207187D457FD0122F659055
:1027990000F2E0FBA3E0FAA3E0F99000081206C1F9
:1027A900FDC3EF9DFFEE95F0FE9000EFE0FBA3E087
:0D27B900FAA3E0F9900008EE8FF002071877
:102BD000123148122CCA123076122F387B017A003B
:102BE0007990122EF97B017A0079E5122F917B0101
:102BF0007A0079E5121BDE7B017A0079D912305A0E
:102C00007B017A0079A2122D841230021230207BCF
:102C1000017A0079C712000E1230C59000C6E0B4E8
:102C200005F9E4F07B0190011804F0A37400F0A30F
:102C300074D9F07A007990122E759001187401F011
:102C4000A37400F0A374D9F07B017A007990122E5E
:032C5000B780C882
:03000B000224616B
:10246100C0E0C0F0C083C082C0D075D000C000C041
:1024710001C002C003C004C005C006C007C2AF75D9
:102481008ACD758CD49000C6E004F09000F27401FE
:10249100F0A37400F0A374E5F07B017A0079901247
:1024A10026B97B017A00799012289F9000C7E0FE3F
:1024B100A3E0FFEE600302254EEF24FE60411460AD
:1024C100572402600302254E9000F27401F0A374B8
:1024D10000F0A374C7F07B017A0079D9122C5390D4
:1024E10000A212084943B400009000A61208494115
:1024F1004000009000AA120849465AC000804E9040
:1025010000F27401F0A37400F0A374C7F07B017AA8
:102511000079D912295380179000F27401F0A37445
:1025210000F0A374C7F07B017A0079D91229FD90DC
:1025310000A212084944A280009000A61208494056
:102541002CCCCD9000AA1208494700E8009000F277
:102551007401F0A37400F0A37490F0A37401F0A3CC
:102561007400F0A374D9F07B017A0079A212183BB0
:102571007B017A0079A21220CBD2AFD007D006D04E
:1025810005D004D003D002D001D000D0D0D082D069
:0625910083D0F0D0E0321F
:03004300021E5644
:101E5600C0E0C0F0C083C082C0D075D000C000C052
:0D1E660001C002C003C004C005C006C007D3
:101E7300C2AFE59A20E0030220A6539AFEAF9BEF80
:101E830024CFB4090040030220A6901E9B75F003E3
:101E9300A4C58325F0C58373021EB6021EC1021FAB
:101EA30008021F4D021F59021FA1021FE7022069EA
:101EB3000220749000C7E4F0A304F00220A690006F
:101EC300C9E0FCA3E0FDA3E0FEA3E0FFE4FBFA7995
:101ED300A0784012004D9000C912083DE4FFFE7D3A
:101EE300F07C419000C9E0F8A3E0F9A3E0FAA3E095
:101EF300FB1202E46051404F9000C912084941F0BF
:101F03000000021FE79000C9E0FCA3E0FDA3E0FE90
:101F1300A3E0FFE4FBFA79A078401200499000C9DE
:101F230012083DE4FFFE7DF07CC19000C9E0F8A3F8
:101F3300E0F9A3E0FAA3E0FB1202E4500A9000C91F
:101F4300120849C1F00000021FE79000C7E4F0A3A4
:101F53007402F00220A69000CDE0FCA3E0FDA3E014
:101F6300FEA3E0FF7B197A047906783F12004D90B7
:101F730000CD12083D7FD07E0F7D497C409000CD7F
:101F8300E0F8A3E0F9A3E0FAA3E0FB1202E4600C9B
:101F9300400A9000CD12084940490FD08046900076
:101FA300CDE0FCA3E0FDA3E0FEA3E0FF7B197A04F0
:101FB3007906783F1200499000CD12083D7FD07E0C
:101FC3000F7D497CC09000CDE0F8A3E0F9A3E0FACF
:101FD300A3E0FB1202E4500A9000CD120849C04965
:101FE3000FD080009000CDE0FCA3E0FDA3E0FEA3B2
:101FF300E0FF1223219000C9E0F8A3E0F9A3E0FA7F
:10200300A3E0FB12013EE4FBFA79D57842120247C2
:102013001225B77BEE7A2E7965784212013E900045
:10202300D112083D9000CDE0FCA3E0FDA3E0FEA3A8
:10203300E0FF1223379000C9E0F8A3E0F9A3E0FA28
:10204300A3E0FB12013EE4FBFA79D5784212024782
:102053001225B77BEE7A2E7965784212013E900005
:10206300D512083D803D9000C7E4F0A37403F080CF
:10207300329000A2120849434800009000A61208BB
:1020830049400000009000AA120849479C40009074
:1020930000D1120849000000009000D51208490041
:0D20A300000000E59A30E503539AFDD2AF2E
:1020B000D007D006D005D004D003D002D001D00084
:0B20C000D0D0D082D083D0F0D0E0322E
:102D840012087A0000000090000412089400000069
:102D9400009000081208940000000090000C120833
:102DA40094000000009000101208944780000090E6
:102DB40000141208940000000090001812089400F7
:102DC40000000090001C120894478000009000202E
:082DD400120894000000002227
:0B183B009000EFEBF0A3EAF0A3E9F04F
:10184600A3E0FBA3E0FAA3E0F990000A12080DC09A
:1018560000C001C002C0039000F5E0FBA3E0FAA3BC
:10186600E0F9900004120773D003D002D001D00033
:101876001200499000F812083D9000EFE0FBA3E04B
:10188600FAA3E0240CF9E43AFAC003C002C001123C
:1018960007539000F8E0F8A3E0F9A3E0FAA3E0FB11
:1018A60012004DD001D002D0031207A39000EFE042
:1018B600FBA3E0FAA3E0F990000C120773E4FBFA2D
:1018C600797A78441202E450179000EFE0FBA3E027
:1018D600FAA3E0F990000C120894447A00008034D0
:1018E6009000EFE0FBA3E0FAA3E0F990000C1207EA
:1018F60073E4FBFA797A78C41202E4601740159013
:1019060000EFE0FBA3E0FAA3E0F990000C120894C4
:10191600C47A00009000EFE0FBA3E0FAA3E0F990A0
:101926000010120773E4FBFA798078471202E4701C
:101936000C9000FC1208490000000080289000EF7F
:10194600E0FBA3E0FAA3E0F990001012080D900066
:10195600F8E0FCA3E0FDA3E0FEA3E0FF120049903F
:1019660000FC12083D9000F8E0FCA3E0FDA3E0FEB9
:10197600A3E0FF9000EFE0FBA3E0FAA3E0F99000FC
:10198600101207BD90000C12077390000412080D88
:1019960012013EC004C005C006C0079000EFE0FB80
:1019A600A3E0FAA3E0F91207539000F8E0F8A3E0E9
:1019B600F9A3E0FAA3E0FB12013ED003D002D00166
:1019C600D00012004DC004C005C006C0079000EF4D
:1019D600E0FBA3E0FAA3E0F9900008120773900079
:1019E600FCE0F8A3E0F9A3E0FAA3E0FB12013ED085
:1019F60003D002D001D00012004D9000EFE0FBA30F
:101A0600E0FAA3E0F99000141207BD9000F2E0FBA3
:101A1600A3E0FAA3E0F990000E12080DC000C00181
:101A2600C002C0039000F5E0FBA3E0FAA3E0F99042
:101A36000008120773D003D002D001D0001200496B
:101A460090010012083D9000EFE0FBA3E0FAA3E04E
:101A56002418F9E43AFAC003C002C00112075390F1
:101A66000100E0F8A3E0F9A3E0FAA3E0FB12004DC1
:101A7600D001D002D0031207A39000EFE0FBA3E051
:101A8600FAA3E0F9900018120773E4FBFA797A7862
:101A9600441202E450179000EFE0FBA3E0FAA3E043
:101AA600F9900018120894447A000080349000EFF0
:101AB600E0FBA3E0FAA3E0F9900018120773E4FB39
:101AC600FA797A78C41202E4601740159000EFE0C4
:101AD600FBA3E0FAA3E0F9900018120894C47A0078
:101AE600009000EFE0FBA3E0FAA3E0F990001C12DF
:101AF6000773E4FBFA798078471202E4700C9001D0
:101B0600041208490000000080289000EFE0FBA3C3
:101B1600E0FAA3E0F990001C12080D900100E0FC29
:101B2600A3E0FDA3E0FEA3E0FF120049900104122A
:101B3600083D900100E0FCA3E0FDA3E0FEA3E0FF6A
:101B46009000EFE0FBA3E0FAA3E0F990001C120777
:101B5600BD90001812077390000412080D12013E82
:101B6600C004C005C006C0079000EFE0FBA3E0FA82
:101B7600A3E0F9120753900100E0F8A3E0F9A3E00F
:101B8600FAA3E0FB12013ED003D002D001D000122E
:101B9600004DC004C005C006C0079000EFE0FBA3DF
:101BA600E0FAA3E0F9900008120773900104E0F848
:101BB600A3E0F9A3E0FAA3E0FB12013ED003D002B2
:101BC600D001D00012004D9000EFE0FBA3E0FAA395
:081BD600E0F99000200207BDB8
:0E313A0025662C25662C0025662C25660A00CD
:1030020053B2FC53B1FC53A23F759852438E4053C6
:0E3012008EFE53890F758BE8758DFFD28E22CE
:102E7500900115EBF0A3EAF0A3E9F0900115E0FB52
:102E8500A3E0FAA3E0F990000A12077390011E125D
:102E9500083D900118E0FBA3E0FAA3E0F9900004D7
:102EA50012077390012212083D7BFF7A31793A02AD
:022EB5001423E4
:102EB700900115EBF0A3EAF0A3E9F0900115E0FB10
:102EC700A3E0FAA3E0F990000E12077390011E1217
:102ED700083D900118E0FBA3E0FAA3E0F990000891
:102EE70012077390012212083D7BFF7A3179410264
:022EF7001423A2
:103107005396F143960E5395F153B27F43B28053D2
:03311700B17F2263
:102CCA0012310743BA80E4F5F190FFF2F090FFF079
:102CDA00742EF0A374E0F090FF30E4F0A3F0A3F0B8
:102CEA00A304F090FF20E4F0A3F0A3F0A304F09073
:102CFA00FF10E4F0A3F0A3F0A304F090FF00E4F0C7
:102D0A00A3F0A3F0A304F0A3E4F090FF14F090FF63
:0D2D1A0024F090FF34F075F50F43F5802292
:1030C500538E7F5389F0438901758ACD758CD4C29F
:0830D5008DD2A9D2AFD28C22EA
:10305A0012087A0000000090000412089400000090
:0C306A00009000081208940000000022F2
:102C53009000EFEBF0A3EAF0A3E9F09000EFE0FBC4
:102C6300A3E0FAA3E0F9C003C002C0011207537B3B
:102C7300A67A9B7944783C12004DD001D002D00350
:102C83001207A39000F2E0FBA3E0FAA3E0F990009F
:102C93000A1207739000EFE0FBA3E0FAA3E0F990B8
:102CA30000041207BD9000F2E0FBA3E0FAA3E0F9F1
:102CB30090000E1207739000EFE0FBA3E0FAA3E08D
:072CC300F99000080207BDB3
:102953009000EFEBF0A3EAF0A3E9F09000EFE0FBC7
:10296300A3E0FAA3E0F9C003C002C0011207537B3E
:10297300A67A9B7944783C12004DD001D002D00353
:102983001207A39000EFE0FBA3E0FAA3E0F912071C
:10299300537B9E7A5E7981784012013E12233790F1
:1029A30000F2E0FBA3E0FAA3E0F990000A12080D9D
:1029B30012013E9000EFE0FBA3E0FAA3E0F99000E0
:1029C300041207BD1207537B9E7A5E798178401209
:1029D300013E1223379000F2E0FBA3E0FAA3E0F9F3
:1029E30090000E12080D12013E9000EFE0FBA3E0F1
:0A29F300FAA3E0F99000080207BD06
:1029FD009000EFEBF0A3EAF0A3E9F09000EFE0FB1D
:102A0D00A3E0FAA3E0F9C003C002C0011207537B93
:102A1D00A67A9B7944783C12004DD001D002D003A8
:102A2D001207A39000EFE0FBA3E0FAA3E0F9120771
:102A3D00537B9E7A5E7981784012013E1223379046
:102A4D0000F2E0FBA3E0FAA3E0F990000A12080DF2
:102A5D0012013E9000EFE0FBA3E0FAA3E0F9900035
:102A6D00041207BD1207537B9E7A5E79817840125E
:102A7D00013E1223219000F2E0FBA3E0FAA3E0F95E
:102A8D0090000A12080D12013E9000EFE0FBA3E04A
:0A2A9D00FAA3E0F99000080207BD5B
:1027C6005000003F80000000000000000000003FB5
:1027D6008000005000100000000000000000000013
:1027E6000000000000004400200000000044002417
:1027F600000000004400280000000044002C0000F7
:1028060000004400300000000044003400000000D6
:102816004400380000000044003C00000000440072
:102826004000000000440044000000005000483F03
:1028360080000000000000000000003F8000005003
:10284600005800000000000000000000000000002A
:1028560000004400680000000044006C0000000016
:1028660044007000000000440074000000004400B2
:10287600780000000044007C000000004400800056
:1028860000000044008400000000440088000000AE
:082896000044008C000000006A
:100A540090010512083D900102EBF0A3EAF0A3E92E
:010A6400F0A1
:100A6500240AF9E43AFAC003C002C001120753C0D0
:100A750004C005C006C007900020E0F8A3E0F9A374
:100A8500E0FAA3E0FB900109E0FCA3E0FDA3E0FE92
:100A9500A3E0FF1200497BA67A9B7944783C1201BA
:100AA5003EA804A905AA06AB07D007D006D005D0F5
:100AB5000412004DD001D002D0031207A390010209
:100AC500E0FBA3E0FAA3E0F990000A12080D9001FB
:100AD50005E0FCA3E0FDA3E0FEA3E0FF12004990C2
:100AE500002412083D900004E0F8A3E0F9A3E0FA21
:100AF500A3E0FB7F6F7E127D837C3A120049900054
:100B050008E0F8A3E0F9A3E0FAA3E0FB120049909E
:100B1500001012083D90000CE0FCA3E0FDA3E0FEF0
:100B2500A3E0FF12035D90001412083D90000CE055
:100B3500FCA3E0FDA3E0FEA3E0FF12035D90001817
:100B450012083D90001C1208493BA3D70A900000EB
:100B5500E0F8A3E0F9A3E0FAA3E0FBC000C001C000
:100B650002C0037FA67E9B7D447C3C900010E0F88C
:100B7500A3E0F9A3E0FAA3E0FB12013ED003D00203
:100B8500D001D00012004D90000012083D900004E5
:100B9500E0F8A3E0F9A3E0FAA3E0FBC000C001C0C0
:100BA50002C0037FA67E9B7D447C3C900014E0F848
:100BB500A3E0F9A3E0FAA3E0FB12013ED003D002C3
:100BC500D001D00012004D90000412083D9000089D
:100BD500E0F8A3E0F9A3E0FAA3E0FBC000C001C080
:100BE50002C0037FA67E9B7D447C3C900018E0F804
:100BF500A3E0F9A3E0FAA3E0FB12013ED003D00283
:100C0500D001D00012004D90000812083D90000C54
:100C1500E0F8A3E0F9A3E0FAA3E0FBC000C001C03F
:100C250002C0037FA67E9B7D447C3C90001CE0F8BF
:100C3500A3E0F9A3E0FAA3E0FB12013ED003D00242
:100C4500D001D00012004D90000C12083D9000001C
:100C5500E0FCA3E0FDA3E0FEA3E0FF90002812085E
:100C65003D900008E0FCA3E0FDA3E0FEA3E0FF90BB
:100C7500002C12083DE4FFFEFD7C3F900028E0F8C3
:100C8500A3E0F9A3E0FAA3E0FB12004D90003012B7
:100C9500083D900030E0F8A3E0F9A3E0FAA3E0FBFB
:100CA500900028E0FCA3E0FDA3E0FEA3E0FF120214
:100CB5004790003412083D900030E0F8A3E0F9A316
:100CC500E0FAA3E0FB90002CE0FCA3E0FDA3E0FE2E
:100CD500A3E0FF12024790003812083D900028E07B
:100CE500FCA3E0FDA3E0FEA3E0FF90003C12083D5D
:100CF500900004E0FCA3E0FDA3E0FEA3E0FF90006C
:100D05004012083D900000E0FCA3E0FDA3E0FEA337
:100D1500E0FFC004C005C006C00790003CE0FCA38E
:100D2500E0FDA3E0FEA3E0FF900034E0F8A3E0F9C6
:100D3500A3E0FAA3E0FB12013EA804A905AA06ABAD
:100D450007D007D006D005D0041200499000001244
:100D5500083D900004E0FCA3E0FDA3E0FEA3E0FF56
:100D6500C004C005C006C007900040E0FCA3E0FD3C
:100D7500A3E0FEA3E0FF900034E0F8A3E0F9A3E0D0
:100D8500FAA3E0FB12013EA804A905AA06AB07D009
:100D950007D006D005D00412004990000412083D82
:100DA500900008E0FCA3E0FDA3E0FEA3E0FFC00483
:100DB500C005C006C00790003CE0FCA3E0FDA3E031
:100DC500FEA3E0FF900038E0F8A3E0F9A3E0FAA362
:100DD500E0FB12013EA804A905AA06AB07D007D07F
:100DE50006D005D00412004990000812083D900075
:100DF5000CE0FCA3E0FDA3E0FEA3E0FFC004C005FA
:100E0500C006C007900040E0FCA3E0FDA3E0FEA300
:100E1500E0FF900038E0F8A3E0F9A3E0FAA3E0FBD7
:100E250012013EA804A905AA06AB07D007D006D033
:100E350005D00412004990000C12083D900102E013
:100E4500FBA3E0FAA3E0240AF9E43AFAC003C002DE
:100E5500C001120753C004C005C006C00790002496
:100E6500E0FCA3E0FDA3E0FEA3E0FF900034E0F882
:100E7500A3E0F9A3E0FAA3E0FB12013EA804A9054B
:100E8500AA06AB07D007D006D005D00412004DD076
:100E950001D002D0031207A3900020E0F8A3E0F9E7
:100EA500A3E0FAA3E0FBC000C001C002C003A3E0B9
:100EB500FCA3E0FDA3E0FEA3E0FF900038E0F8A36B
:100EC500E0F9A3E0FAA3E0FB12013ED003D002D083
:100ED50001D00012004D90002012083D900020E046
:100EE500F8A3E0F9A3E0FAA3E0FB900109E0FCA375
:100EF500E0FDA3E0FEA3E0FF1200499000440208D4
:010F05003DAE
:100F060090010512083D900102EBF0A3EAF0A3E977
:010F1600F0EA
:100F1700240EF9E43AFAC003C002C001120753C015
:100F270004C005C006C007900068E0F8A3E0F9A375
:100F3700E0FAA3E0FB900109E0FCA3E0FDA3E0FEDB
:100F4700A3E0FF1200497BA67A9B7944783C120103
:100F57003EA804A905AA06AB07D007D006D005D03E
:100F67000412004DD001D002D0031207A390010252
:100F7700E0FBA3E0FAA3E0F990000E12080D900140
:100F870005E0FCA3E0FDA3E0FEA3E0FF120049900B
:100F9700006C12083D90004CE0F8A3E0F9A3E0FADA
:100FA700A3E0FB7F6F7E127D837C3A12004990009D
:100FB70050E0F8A3E0F9A3E0FAA3E0FB12004990A0
:100FC700005812083D900054E0FCA3E0FDA3E0FEAA
:100FD700A3E0FF12035D90005C12083D900054E00F
:100FE700FCA3E0FDA3E0FEA3E0FF12035D90006019
:100FF70012083D9000641208493BA3D70A900048A5
:10100700E0F8A3E0F9A3E0FAA3E0FBC000C001C049
:1010170002C0037FA67E9B7D447C3C900058E0F88D
:10102700A3E0F9A3E0FAA3E0FB12013ED003D0024C
:10103700D001D00012004D90004812083D90004C9E
:10104700E0F8A3E0F9A3E0FAA3E0FBC000C001C009
:1010570002C0037FA67E9B7D447C3C90005CE0F849
:10106700A3E0F9A3E0FAA3E0FB12013ED003D0020C
:10107700D001D00012004D90004C12083D90005056
:10108700E0F8A3E0F9A3E0FAA3E0FBC000C001C0C9
:1010970002C0037FA67E9B7D447C3C900060E0F805
:1010A700A3E0F9A3E0FAA3E0FB12013ED003D002CC
:1010B700D001D00012004D90005012083D9000540E
:1010C700E0F8A3E0F9A3E0FAA3E0FBC000C001C089
:1010D70002C0037FA67E9B7D447C3C900064E0F8C1
:1010E700A3E0F9A3E0FAA3E0FB12013ED003D0028C
:1010F700D001D00012004D90005412083D900048D6
:10110700E0FCA3E0FDA3E0FEA3E0FF90007012085F
:101117003D900050E0FCA3E0FDA3E0FEA3E0FF90BC
:10112700007412083DE4FFFEFD7C3F900070E0F87C
:10113700A3E0F9A3E0FAA3E0FB12004D90007812B8
:10114700083D900078E0F8A3E0F9A3E0FAA3E0FBFC
:10115700900070E0FCA3E0FDA3E0FEA3E0FF120215
:101167004790007C12083D900078E0F8A3E0F9A3CF
:10117700E0FAA3E0FB900074E0FCA3E0FDA3E0FE2F
:10118700A3E0FF12024790008012083D900070E034
:10119700FCA3E0FDA3E0FEA3E0FF90008412083D5E
:1011A70090004CE0FCA3E0FDA3E0FEA3E0FF90006D
:1011B7008812083D900048E0FCA3E0FDA3E0FEA3F1
:1011C700E0FFC004C005C006C007900084E0FCA390
:1011D700E0FDA3E0FEA3E0FF90007CE0F8A3E0F9C8
:1011E700A3E0FAA3E0FB12013EA804A905AA06ABF7
:1011F70007D007D006D005D0041200499000481246
:10120700083D90004CE0FCA3E0FDA3E0FEA3E0FF57
:10121700C004C005C006C007900088E0FCA3E0FD3D
:10122700A3E0FEA3E0FF90007CE0F8A3E0F9A3E0D1
:10123700FAA3E0FB12013EA804A905AA06AB07D052
:1012470007D006D005D00412004990004C12083D83
:10125700900050E0FCA3E0FDA3E0FEA3E0FFC00484
:10126700C005C006C007900084E0FCA3E0FDA3E032
:10127700FEA3E0FF900080E0F8A3E0F9A3E0FAA363
:10128700E0FB12013EA804A905AA06AB07D007D0C8
:1012970006D005D00412004990005012083D900076
:1012A70054E0FCA3E0FDA3E0FEA3E0FFC004C005FB
:1012B700C006C007900088E0FCA3E0FDA3E0FEA302
:1012C700E0FF900080E0F8A3E0F9A3E0FAA3E0FBD9
:1012D70012013EA804A905AA06AB07D007D006D07D
:1012E70005D00412004990005412083D900102E015
:1012F700FBA3E0FAA3E0240EF9E43AFAC003C00224
:10130700C001120753C004C005C006C00790006C97
:10131700E0FCA3E0FDA3E0FEA3E0FF90007CE0F883
:10132700A3E0F9A3E0FAA3E0FB12013EA804A90594
:10133700AA06AB07D007D006D005D00412004DD0BF
:1013470001D002D0031207A3900068E0F8A3E0F9E8
:10135700A3E0FAA3E0FBC000C001C002C003A3E002
:10136700FCA3E0FDA3E0FEA3E0FF900080E0F8A36C
:10137700E0F9A3E0FAA3E0FB12013ED003D002D0CC
:1013870001D00012004D90006812083D900068E0FF
:10139700F8A3E0F9A3E0FAA3E0FB900109E0FCA3BE
:1013A700E0FDA3E0FEA3E0FF12004990008C0208D5
:0113B7003DF8
:0B2DDC00900102EBF0A3EAF0A3E9F085
:102DE7009000021206C1FDACF0EC120373C004C0E0
:102DF70005C006C007900102E0FBA3E0FAA3E0F9D3
:102E07009000041206C1FDACF0EC120373900109A7
:102E170012083DD007D006D005D004122AA77BEEB2
:092E27007A2E7965784212013E11
:012E3000227F
:0B2D2700900102EBF0A3EAF0A3E9F03A
:102D3200120696FFAEF07CFF7DFF120684AC06AD54
:102D420007EC120373C004C005C006C0079001025D
:102D5200E0FBA3E0FAA3E0F99000041206C1FDAC87
:102D6200F0EC12037390010912083DD007D006D08F
:102D720005D004122AA77BEE7A2E796578421201D9
:012D82003E12
:012D8300222D
:07309200F91206C1FFAEF0C8
:10309900AD07AC06EC1203737B6F7A1279037843A0
:0330A900120247C9
:0130AC002201
:0B289F009000EFEBF0A3EAF0A3E9F0DB
:1028AA00122DDC9000F212083D9000EFE0FBA3E04D
:1028BA00FAA3E0F9122D279000FA12083D9000EFD2
:1028CA00E0FBA3E0FAA3E09000061230929000F633
:1028DA0012083D9000EFE0FBA3E0FAA3E0900008A5
:1028EA001230929000FE12083D9000EFE0FBA3E048
:1028FA00FAA3E0F99000F6E0FCA3E0FDA3E0FEA352
:10290A00E0FF90010912083D9000F2E0FCA3E0FD0F
:10291A00A3E0FEA3E0FF120A549000EFE0FBA3E05D
:10292A00FAA3E0F99000FEE0FCA3E0FDA3E0FEA319
:10293A00E0FF90010912083D9000FAE0FCA3E0FDD7
:09294A00A3E0FEA3E0FF020F066A
:103076005394034394FC5393035396FE4396015390
:0C30860095FE53B4EF43B41053B3EF2297
:05000300D282C283223D
:05003E00C282C2832212
:05315300D284C28522B8
:05315800C284C28522C3
:05315D00D286C28722AA
:05316200C286C28722B5
:05316700D2A0C2C42249
:05316C00C2A0C2C42254
:1020CB009000EFEBF0A3EAF0A3E9F09000EFE0FB58
:1020DB00A3E0FAA3E0F9900014120773E4FBFAF9FA
:1020EB00F81202E46072407012003E1231539000FD
:1020FB00EFE0FBA3E0FAA3E0F99000141207737B67
:10210B00007A8079BB78C51202E46007400590FF26
:10211B0022806C9000EFE0FBA3E0FAA3E0F99000C3
:10212B0014120773E4FBFA798078BF1202E45005AE
:10213B0090FF2280759000EFE0FBA3E0FAA3E0F99B
:10214B00900014120773E4FBFA798078BF12013EFA
:10215B001203AC90FF2280701200031231589000D2
:10216B00EFE0FBA3E0FAA3E0F99000141207737BF6
:10217B00007A8079BB78451202E4500C90FF3274E0
:10218B0017F0A37470F080459000EFE0FBA3E0FA2A
:10219B00A3E0F9900014120773E4FBFA7980783FFF
:1021AB001202E4600C400A90FF32E4F0A304F080CA
:1021BB001C9000EFE0FBA3E0FAA3E0F990001412EF
:1021CB0007731203AC90FF32EEF0A3EFF09000EF29
:1021DB00E0FBA3E0FAA3E0F9900020120773E4FB05
:1021EB00FAF9F81202E46072407012316212316730
:1021FB009000EFE0FBA3E0FAA3E0F99000201207B8
:10220B00737B007A8079BB78C51202E460074005C6
:10221B0090FF02806C9000EFE0FBA3E0FAA3E0F9E3
:10222B00900020120773E4FBFA798078BF1202E466
:10223B00500590FF0280749000EFE0FBA3E0FAA33F
:10224B00E0F9900020120773E4FBFA798078BF1253
:10225B00013E1203AC90FF02806E12315D12316CA5
:10226B009000EFE0FBA3E0FAA3E0F9900020120747
:10227B00737B007A8079BB78451202E4500B90FF98
:10228B00127417F0A37470F0229000EFE0FBA3E040
:10229B00FAA3E0F9900020120773E4FBFA79807837
:1022AB003F1202E4600B400990FF12E4F0A304F02C
:1022BB00229000EFE0FBA3E0FAA3E0F990002012DC
:0E22CB0007731203AC90FF12EEF0A3EFF022A7
:103020005392FC5391FC53BAFE759A50438E04752B
:0E303000D7E075D6FE438E1075AF01D2AF22E9
:10000E00E475F0011206F990000212089400000047
:10001E00009000061208940000000090000A1208DA
:10002E00940000000090000E1208940000000022C0
:10004600020418E86480F8E933E83360110460F0CC
:10005600ED33EC337009E8FCE9FDEAFEEBFF220420
:1000660060DED3EB9FEA9EE99DE8C2E78CF0C2F71B
:1000760095F0400CE8CCF8E9CDF9EACEFAEBCFFBE7
:100086001203E385D0F05804700320D5B3E804705A
:10009600075002B2D502042292D5EC0460F7E4CCF4
:1000A600C0E0C398F8603B94186008400DD0E0FBB0
:1000B6000203FAE4FBFAC9FC8028E830E406E4C946
:1000C600FBE4CAFCE830E305E4C9CACBFCE8540704
:1000D6006010F8C3E913F9EA13FAEB13FBEC13FC0F
:1000E600D8F130F52FC3E49CFCEF9BFFEE9AFEEDB2
:1000F60099FDD0E0FBEF4E4D4C701222DB0302045B
:100106001FEC2CFCEF33FFEE33FEED33FDED30E755
:10011600EB0203FAEF2BFFEE3AFEED39FDD0E0FBE2
:1001260050130BBB0003020422ED13FDEE13FEEF8A
:0801360013FFEC13FC0203FAB5
:10013E00EC4D6011E8497017ED33EC3304600DE4BB
:10014E00FCFFFEFD22E933E8330470F802041812B6
:10015E0003E358046009E4CC2481500628500902B8
:10016E00042228400302041FC0E0EB4A7044B98009
:10017E0006D0E0FB02040EEF4E701CBD8008EBFFB4
:10018E00EAFEE9FD80EBE98DF0A4FEE5F002022720
:10019E00E9CDF9EAFEEBFFEF89F0A4FCE5F0CE899C
:1001AE00F0A42EFFE435F0CD89F0A42DFEE435F059
:1001BE008067EF4E7005BD80D780C3EF8BF0A4AC87
:1001CE00F0EE8BF0A42CFCE435F0F8EF8AF0A42CC2
:1001DE00E5F038FCE433CB8DF0A42CFCE5F03BF8D5
:1001EE00EE8AF0A42CFCE5F038F8E433CF89F0A4C5
:1001FE002CFCE5F038CF3400CE89F0A42FFFE5F0CB
:10020E003EFEE433C98DF0A42EFEE5F039CD8AF022
:10021E00A42FFFE5F03EFEE43DFD33D0E0FB50079A
:10022E000BBB000F020422EC2CFCEF33FFEE33FE6F
:06023E00ED33FD0203FA9E
:10024400020422EC5D046005E859047003020418FA
:100254001203E3580460F6EC4860F2EC7004FDFE0F
:10026400FF22C860DB2481C85009C398600250068D
:1002740002041F9850CAF582E9294B4A7005AB82E3
:1002840002040E75F0007C1A7880C3EF9BEE9AEDA1
:1002940099400DC3EF9BFFEE9AFEED99FDE842F005
:1002A400DC23ACF0D0E0FFD0E0FED0E0FDAB822058
:1002B400E7101BEB60BAEC2CFCEF33FFEE33FEEDE2
:1002C40033FD0203FAE803F830E705C0F075F000E7
:1002D400EF2FFFEE33FEED33FD40B830E7C280AAC6
:1002E40074F8CC6480CCC86480C8F58204604FC3C1
:1002F400EB9FF5F0EA9E42F0E99D42F0E89C45F060
:10030400603C501DE5825FFFE582D313CB5BCBF4E9
:100314002B5582FB50280ABA002409B90020088012
:100324001DE5825BFBE582D313CF5FCFF4C3132FAC
:100334005582FF50090EBE00050DBD00010CC3EB34
:100344009FF5F0EA9E42F0E99D42F0E89C45F0609A
:0903540007CC4820E701B3EC22BC
:10035D00ED33EC33600A047003BD8004ECB2E7FCAE
:01036D00226D
:10036E0075F020800E75F010800575F0087D007E0A
:10037E00007F003392D530D503120745EC33401081
:10038E00EF33FFEE33FEED33FDEC33FCD5F0ED2213
:0E039E00E5F0247EA2D513CC92E7CDCEFF224F
:1003AC00EDD2E7CD33EC3392D524814006E4FFFE49
:1003BC00FDFC22FCE4CFCECDCC24E0501174FF80A8
:1003CC00EDC3CC13CCCD13CDCE13CECF13CF047045
:0703DC00F030D5DE020745F9
:1013B800E508241EF582E43401F583E0050822904F
:1013C800011B300B0390011EE475F0011208B802EE
:1013D800062C2004E97F2ED2048018EF540F2490A5
:1013E800D43440D4FF30080BEF24BFB41A005003A4
:1013F8002461FFE50960021509050CE50C7002057A
:101408000B300B0E90011BE475F0011208B8EF02C7
:101418000672022FBB7403D20B8003E4C20BF508DB
:1014280090011B1208CFE4F509F50BF50CE50960EE
:10143800077F201213FB80F5750AFFC205C204C29C
:1014480006C207C209C20AC20C1213C7FF700D30C8
:101458000B057F0012140CAF0CAE0B22B4255FC233
:10146800D5C2081213C7FF24D0B40A00501A75F069
:101478000A780930D50508B6FF0106C6A426F62065
:10148800D5047002D20780D924CFB41A00EF5004D3
:10149800C2E5D2080216FED20580C6D20480C0D2A8
:1014A8000680BCD2D580BAD20980B47F201213FB43
:1014B8002006077401B5090040F11213B8FF121392
:1014C800FB021435D20CD20A80951213B8FB121302
:1014D800B8FA1213B8F94A4B700679FC7A177BFFF1
:1014E80020062EE509602A7E008E8275830012068A
:1014F8004560060EEE650A70F0C2D5EBC0E0EAC0A2
:10150800E0E9C0E0EE12175FD0E0F9D0E0FAD0E0F1
:10151800FB12062CFF60AAEBC0E0EAC0E0E9C0E0DD
:101528001213FBD0E02401F9D0E03400FAD0E0FB3C
:10153800E50A0460DCD50AD98087D20680A2121792
:101548004160F7E50A70010412042DA90A600DE54F
:101558000A600914F50A1217E9EF60F3EA30E702A6
:10156800F404C3995079EAF4250A0430E701E40445
:10157800F50A800D12174160C1EA050A250A12040E
:101588002DEA90014AF030E701E4250A04D50A045F
:101598002009011412175FE4C0E01217E990014A0C
:1015A800E0601320E70714F01213E3802204F0D060
:1015B800E014C0E07F001213E3E50A60071213DAB3
:1015C800150A800B3009031213DAD0E0021435D063
:1015D800E00480C4121741609EE50A0412042D90AD
:1015E800014AEAF0E50A20090260010424041217FE
:0115F8005F93
:1015F90074FF04C0E01217E91213E3E50A20090297
:1016090060031213DAD0E0B50AE87F451213ED90B2
:10161900014AE07F2B30E7047F2DF404C0E0121368
:10162900FBD0E075F00A84C0F01213E4D0E0121385
:10163900E4021435791080027908C20AC20C8008C4
:10164900D2D5790A8004790AC2D5E50A047002F56F
:101659000AE4FAFDFEFF1213B8FC7B0820051312F9
:1016690013B8FD7B1030040A1213B8FE1213B8FF29
:101679007B20EC3382D592D55013C3E43004069F06
:10168900FFE49EFEE42005039DFDE49CFCE4CBF809
:10169900C205EC700CCFCECDCCE824F8F870F380FD
:1016A90017C3EF33FFEE33FEED33FDEC33FCEB33C1
:1016B900FB994002FB0FD8E9EB300505F8D0E0C4EF
:1016C90048B205C0E00AEC4D4E4F78207B0070C24D
:1016D900EAB50A0040BCC0E0121761D0F0D0E020A2
:1016E9000504C4C0E0C4B205C0F01213E4D0F0D5BB
:1016F900F0EB0214351208D814D253163D5814A32E
:101709004C149F4216414F16494416494914B8438F
:10171900164F55157C4615DC45154647181C5014BF
:10172900A72D14AB2E14CE2B14AF2314CC201805DF
:101739002A146748000014C6E50AB4FF03750A06AF
:101749001213B8FC1213B8FD1213B8FE1213B8FF26
:1017590090014302046A790AA2D5200714300909C5
:10176900B910020404B9080104A2D5200A025001E3
:10177900042006689206B509005034C0E07F203085
:1017890007197F30A206720A7209500F1217B8C2E0
:1017990006C20AC209C20C7F30800F300903E9C0B2
:1017A900E01213FB300903D0E0F9D0E0B509CC30E1
:1017B90009177F30B9100C1213FB7F583008077FC7
:1017C900788003B908031213FB3006057F2D021335
:1017D900FB7F20200CF87F2B200AF322920680CF72
:1017E9007F00B40700500B2443F582E43401F583EC
:1017F900E0FF22286E756C6C2900D2051213B830EF
:1018090005F8C205780930D50108F60214672D508C
:101819004349581213B82403B405004001E4901851
:1018290017931213EC743A1213ECD20775090402D8
:02183900163D5A
:102AA70090010512083D900109E0F8A3E0F9A3E0C1
:102AB700FAA3E0FB900105E0FCA3E0FDA3E0FEA381
:102AC700E0FF1202471225B790010512083D900159
:102AD70009E030E759900105E0FCA3E0FDA3E0FE23
:102AE700A3E0FFECC0E0EDC0E0EEC0E0EFC0E0E443
:102AF700FFFEFDFC900105E0F8A3E0F9A3E0FAA3CF
:102B0700E0FB1202E47BDB600250087A0F79497818
:102B17004080067A0F794978C0D0E0FFD0E0FED038
:102B2700E0FDD0E0FC12004D90010512083D900138
:0D2B370005E0FCA3E0FDA3E0FEA3E0FF220B
:1022D9003A70FA83BCAAE9E43E81E0F8BF9DE9E6D9
:1022E9003F80000039283C1ABB9969663DA335E354
:1022F900BF255DE73FC90FDB418DDBCCC44936EE15
:1023090045C9913FC5B0F83D3F800000C317F5347A
:10231900452FFA73C60AFDDD1223E204A2E19202F7
:102329001420E0159022D9740412056F803012230D
:10233900E230E102B20220E0EBA883A98290011108
:1023490012083D898288839022ED740412056F85F5
:1023590082F09001111207F185F08212013EED4CD5
:102369006007300204EC6480FC221223E2C0E0A87A
:1023790083A98290011112083D89828883902311D3
:10238900740312056F8582F09001111207F185F02F
:102399008212013E900111E0CCF0A3E0CDF0A3E060
:1023A900CEF0A3E0CFF0902301740312056FD08221
:1023B9008582F09001111207F185F082E58230E003
:1023C90007120247B2028096EFCBFFEECAFEEDC9B3
:1023D900FDECC8FC1202478085ED33EC547FCC3309
:1023E900920224605007D0E0D0E00204187B837A7F
:1023F900F97922783E12013EEDF933ECF833248164
:102409005011EFFBEEFA1203AC12036EECB2E7FCCB
:1024190012004DED33EC33602F2403F8C313FCEDA8
:1024290092E7FDE82481E4501FECF8EDF9EEFAEFAC
:10243900FB1203ACEF04C2E0FCF582120378ECB2A4
:10244900E7FC12004DE58203FAED33EC3360071423
:0824590013FCED92E7FDEA22FD
:10259700BE1249253E4CCCCDBEAAAAAB3F80000057
:1025A7003E7ADBB03EED63383F24BC7D3F490FDB0D
:1025B700ED33ECC2E7CC339202B4FF13ED547F60E6
:1025C700030204187FDB7E0F7DC97C3F0226ACC265
:1025D70003C3947F401E7007EDD2E794904015EF38
:1025E700FBEEFAEDF9ECF87F007E007D807C3F1270
:1025F7000247D203ED33EC33248430E705E4C0E02F
:10260700806B04FAEDD2E754F0C333DAFD54073494
:10261700002323C0E0CCC0E0F8EDC0E0F9EEC0E055
:10262700FAEFC0E0FBE4120378EC24FEFC90011102
:1026370012083D12013E7B007A007980783F120034
:102647004D900111E0B2E7CCF0A3E0CDF0A3E0CECE
:10265700F0A3E0CFF0D0E0FBD0E0FAD0E0F9D0E093
:10266700F812004D9001111207F112024790011163
:1026770012083D902597740312056F9001111207F8
:10268700F112013ED0E0600F24A3F582E43425F572
:10269700831207FD12004D30030B7BDB7A0F79C9DC
:1026A70078BF12004DED33EC336006ECA20292E7DF
:0226B700FC2203
:1003E300E9D2E7C933E833F892D5EDD2E7CD33EC60
:0703F30033FC5002B2D522D9
:1003FA00EC30E7100FBF000C0EBE00080DBD000464
:10040A000BEB6014A2D5EB13FCED92E7FD2274FF0F
:10041A00FCFDFEFF22E480F8A2D574FF13FC7D8068
:03042A00E480EF7C
:10042D00F920E73624F950037907E4F42402FBE5BB
:10043D0082158270021583DBF6E024FB501BE96008
:10044D0014E4F0E582158270021583E004F0B40A1D
:0D045D0008E4F0D9EE7401F00A22C2D522A5
:10046A00ED33EC3392D5FA602AB4FF33EDC2E77B61
:10047A00FF60067A04798FE4227A04799820D504F9
:10048A007A047993224E614E002B494E46002D493B
:10049A004E4600E47A08F0A3DAFC7B00740722C017
:1004AA0083C082ECC0E0EDC0E0EEC0E0EFC0E0EA5D
:1004BA0075F010A4CAABF075F04DA42BFBE435F02F
:1004CA00FCEA2410FAEB34C5FBEC34D9FCEDC2E7A4
:1004DA00FF75F056A4F42411C5F0F434C58FF0A4C6
:1004EA002AE5F03BE43CF020E7141205ECD0E0FFEB
:1004FA00D0E0FED0E0FDD0E0FC1202478014F40404
:10050A001205ECD0E0FFD0E0FED0E0FDD0E0FC1216
:10051A00013ED082D083E0FAEDD2E7CD33EC33242A
:10052A0082FBE4C3CF33CFCE33CECD33CD33DBF32F
:10053A007B0775F00A846004F0A31B0AE5F0F0A3B8
:10054A008FF0740AA4FFACF08EF0740AA42CFEACEF
:10055A00F050010C8DF0740AA42CFDE435F0F0A3E0
:05056A00DBDE74072236
:10056F00C0E0EFFBEEFAEDF9ECF812013ED0E0F54A
:10057F00F0EFFBEEFAEDF9ECF81207E1A3A3A3A35A
:10058F00E8C0E0E9C0E0EAC0E0EBC0E0C0F0120173
:10059F003E1207FDA3A3A3A312004DD0F0D0E0FBA2
:0D05AF00D0E0FAD0E0F9D0E0F8D5F0D42289
:1005BC003F8000004120000042C80000447A000047
:1005CC00461C400047C35000497424004B189680C9
:1005DC004CBEBC205A0E1BCA6753C21C749DC5AEC0
:1005EC00FB60065407601C232312061AEB54386078
:1005FC000912060612061512013EECF8EDF9EEFA98
:10060C00EFCB22EB12061580F1543803241C900515
:10061C00BCFE93FC0EEE93FD0EEE930ECE93FF22DA
:03000000022B448C
:0C2B4400787FE4F6D8FD758121022B8B10
:10062C00BB010689828A83E0225002E722BBFE02CC
:09063C00E32289828A83E49322FF
:10064500BB010CE58229F582E5833AF583E022506A
:1006550006E92582F8E622BBFE06E92582F8E222B4
:0D066500E58229F582E5833AF583E49322CE
:10067200BB010689828A83F0225002F722BBFE0167
:02068200F32261
:10068400EF8DF0A4A8F0CF8CF0A428CE8DF0A42E8A
:02069400FE2244
:10069600BB010A89828A83E0F5F0A3E0225006872F
:1006A600F009E71922BBFE07E3F5F009E3192289F1
:0B06B600828A83E493F5F07401932224
:1006C100BB0110E58229F582E5833AF583E0F5F077
:1006D100A3E0225009E92582F886F008E622BBFE54
:1006E1000AE92582F8E2F5F008E222E5832AF5839A
:0806F100E993F5F0A3E993225F
:1006F900BB010A89828A83F0E5F0A3F0225006F74C
:0F07090009A7F01922BBFE06F3E5F009F3192248
:10071800F8BB0111E58229F582E5833AF583E8F013
:10072800E5F0A3F0225009E92582C8F608A6F022D0
:0D073800BBFE09E92582C8F2E5F008F222B7
:102E3100C2D5E830E70FB2D5E4C39BFBE49AFAE4CC
:102E410099F9E498F8EC30E717B2D5122E67120918
:102E51003AE4C39BFBE49AFAE499F9E498F8800315
:102E610012093A30D50DE4C39FFFE49EFEE49DFDB7
:042E7100E49CFC22BF
:0E074500C3E49FFFE49EFEE49DFDE49CFC22C5
:10075300BB010789828A830209D85005E9F8020997
:10076300CCBBFE05E9F80209E489828A830207E12A
:10077300BB010DE58229F582E5833AF5830209D8A9
:100783005007E92582F80209CCBBFE07E92582F868
:100793000209E4E58229F582E5833AF5830207E15C
:1007A300BB010789828A8302083D5005E9F8020AE2
:0A07B3000ABBFE05E9F8020A16224F
:1007BD00BB010DE58229F582E5833AF58302083DFB
:1007CD005007E92582F8020A0ABBFE07E92582F8DF
:0407DD00020A1622D4
:1007E100E493FC740193FD740293FE740393FF225E
:0C07F100E0F8A3E0F9A3E0FAA3E0FB228B
:1007FD00E493F8740193F9740293FA740393FB2252
:10080D00BB010DE58229F582E5833AF5830207F1F7
:10081D005007E92582F80209F0BBFE07E92582F8A9
:10082D000209FDE58229F582E5833AF5830207FD8C
:0C083D00ECF0A3EDF0A3EEF0A3EFF0222E
:10084900A8828583F0D083D08212086012086012D2
:100859000860120860E473E493A3C583C5F0C583F7
:10086900C8C582C8F0A3C583C5F0C583C8C582C8F9
:01087900225C
:10087A00BB010789828A830208495005E9F8020AFE
:0A088A0022BBFE05E9F8020A3B223A
:10089400BB010DE58229F582E5833AF58302084917
:1008A4005007E92582F8020A22BBFE07E92582F8EF
:0408B400020A3B22D7
:1008B800F8E0FBA3A3E0F925F0F0E58215827002C9
:0708C8001583E0FA38F0226D
:0908CF00EBF0A3EAF0A3E9F0222A
:1008D800D083D082F8E4937012740193700DA3A3AF
:1008E80093F8740193F5828883E4737402936860C3
:0608F800EFA3A3A380DFC3
:102FBB00EFB40A07740D122FC6740A309811A89932
:102FCB00B8130CC2983098FDA899C298B811F63076
:072FDB0099FDC299F599224E
:102B5000022BD0E493A3F8E493A34003F68001F2A0
:102B600008DFF48029E493A3F85407240CC8C33386
:102B7000C4540F4420C8834004F456800146F6DF55
:102B8000E4800B01020408102040809027C6E47EF8
:102B9000019360BCA3FF543F30E509541FFEE4934A
:102BA000A360010ECF54C025E060A840B8E493A311
:102BB000FAE493A3F8E493A3C8C582C8CAC583CA3C
:102BC000F0A3C8C582C8CAC583CADFE9DEE780BEF4
:01289E000039
:1008FE0075F008758200EF2FFFEE33FECD33CDCCB1
:10090E0033CCC58233C5829BED9AEC99E582984033
:10091E000CF582EE9BFEED9AFDEC99FC0FD5F0D610
:10092E00E4CEFBE4CDFAE4CCF9A88222B800C1B93A
:10093E000059BA002DEC8BF084CFCECDFCE5F0CB78
:10094E00F97818EF2FFFEE33FEED33FDEC33FCEBB1
:10095E0033FB10D703994004EB99FB0FD8E5E4F96C
:10096E00FA227818EF2FFFEE33FEED33FDEC33FC59
:10097E00C933C910D7059BE99A4007EC9BFCE99A4D
:10098E00F90FD8E0E4C9FAE4CCFB2275F010EF2F92
:10099E00FFEE33FEED33FDCC33CCC833C810D70792
:1009AE009BEC9AE899400AED9BFDEC9AFCE899F8CD
:0E09BE000FD5F0DAE4CDFBE4CCFAE4C8F92260
:0C09CC00E6FC08E6FD08E6FE08E6FF2257
:0C09D800E0FCA3E0FDA3E0FEA3E0FF2292
:0C09E400E2FC08E2FD08E2FE08E2FF224F
:0D09F000E6FB08E6F908E6FA08E6CBF82277
:0D09FD00E2FB08E2F908E2FA08E2CBF8227A
:0C0A0A00ECF608EDF608EEF608EFF62218
:0C0A1600ECF208EDF208EEF208EFF2221C
:100A2200D083D082E493F608740193F6087402939B
:090A3200F608740393F6740473D2
:100A3B00D083D082E493F208740193F2087402938A
:090A4B00F208740393F2740473C1
:00000001FF
